{
  "contractName": "Prescription",
  "abi": [
    {
      "inputs": [
        {
          "internalType": "string",
          "name": "_medicine_name",
          "type": "string"
        },
        {
          "internalType": "address",
          "name": "_patient",
          "type": "address"
        }
      ],
      "stateMutability": "nonpayable",
      "type": "constructor"
    },
    {
      "inputs": [],
      "name": "creator",
      "outputs": [
        {
          "internalType": "address",
          "name": "",
          "type": "address"
        }
      ],
      "stateMutability": "view",
      "type": "function",
      "constant": true
    },
    {
      "inputs": [],
      "name": "isUsed",
      "outputs": [
        {
          "internalType": "bool",
          "name": "",
          "type": "bool"
        }
      ],
      "stateMutability": "view",
      "type": "function",
      "constant": true
    },
    {
      "inputs": [],
      "name": "medicineName",
      "outputs": [
        {
          "internalType": "string",
          "name": "",
          "type": "string"
        }
      ],
      "stateMutability": "view",
      "type": "function",
      "constant": true
    },
    {
      "inputs": [],
      "name": "pharmacist",
      "outputs": [
        {
          "internalType": "address",
          "name": "",
          "type": "address"
        }
      ],
      "stateMutability": "view",
      "type": "function",
      "constant": true
    },
    {
      "inputs": [
        {
          "internalType": "address",
          "name": "_pharmacist",
          "type": "address"
        }
      ],
      "name": "reedem",
      "outputs": [],
      "stateMutability": "nonpayable",
      "type": "function"
    }
  ],
  "bytecode": "0x608060405234801561001057600080fd5b5060405161059c38038061059c8339818101604052604081101561003357600080fd5b810190808051604051939291908464010000000082111561005357600080fd5b8382019150602082018581111561006957600080fd5b825186600182028301116401000000008211171561008657600080fd5b8083526020830192505050908051906020019080838360005b838110156100ba57808201518184015260208101905061009f565b50505050905090810190601f1680156100e75780820380516001836020036101000a031916815260200191505b5060405260200180519060200190929190505050336000806101000a81548173ffffffffffffffffffffffffffffffffffffffff021916908373ffffffffffffffffffffffffffffffffffffffff16021790555081600190805190602001906101519291906101b5565b5080600260006101000a81548173ffffffffffffffffffffffffffffffffffffffff021916908373ffffffffffffffffffffffffffffffffffffffff1602179055506000600360146101000a81548160ff0219169083151502179055505050610252565b828054600181600116156101000203166002900490600052602060002090601f016020900481019282601f106101f657805160ff1916838001178555610224565b82800160010185558215610224579182015b82811115610223578251825591602001919060010190610208565b5b5090506102319190610235565b5090565b5b8082111561024e576000816000905550600101610236565b5090565b61033b806102616000396000f3fe608060405234801561001057600080fd5b50600436106100575760003560e01c806302d05d3f1461005c5780635ccaf58914610090578063b59b3093146100b0578063be6fb31b14610133578063edddd57f14610177575b600080fd5b6100646101ab565b604051808273ffffffffffffffffffffffffffffffffffffffff16815260200191505060405180910390f35b6100986101cf565b60405180821515815260200191505060405180910390f35b6100b86101e2565b6040518080602001828103825283818151815260200191508051906020019080838360005b838110156100f85780820151818401526020810190506100dd565b50505050905090810190601f1680156101255780820380516001836020036101000a031916815260200191505b509250505060405180910390f35b6101756004803603602081101561014957600080fd5b81019080803573ffffffffffffffffffffffffffffffffffffffff169060200190929190505050610280565b005b61017f6102df565b604051808273ffffffffffffffffffffffffffffffffffffffff16815260200191505060405180910390f35b60008054906101000a900473ffffffffffffffffffffffffffffffffffffffff1681565b600360149054906101000a900460ff1681565b60018054600181600116156101000203166002900480601f0160208091040260200160405190810160405280929190818152602001828054600181600116156101000203166002900480156102785780601f1061024d57610100808354040283529160200191610278565b820191906000526020600020905b81548152906001019060200180831161025b57829003601f168201915b505050505081565b80600360006101000a81548173ffffffffffffffffffffffffffffffffffffffff021916908373ffffffffffffffffffffffffffffffffffffffff1602179055506001600360146101000a81548160ff02191690831515021790555050565b600360009054906101000a900473ffffffffffffffffffffffffffffffffffffffff168156fea2646970667358221220529b1adcb13475e2d51a53f8fedafa9385921aff8ba8649d8d962b1296304a6e64736f6c63430007000033",
  "immutableReferences": {},
  "source": "pragma solidity >=0.7.0;\n\n\ncontract Prescription {\n\n    // usually prescription is made by doctor, but here we will stick to general term of prescription creator\n    // The keyword public automatically generates a function that allows you to access the current value of\n    // the state variable from outside of the contract.\n    address public creator;\n\n    // for now lets say we will store only medicine name,\n    // but this should be some struct - https://docs.soliditylang.org/en/v0.8.1/types.html#structs\n    string public medicineName;\n\n    // lets say patient address is not accessible for others\n    address patient;\n\n    // lets assume pharmacist will be visible as well\n    address public pharmacist;\n\n    // to indicate wheather prescription was used\n    bool public isUsed;\n\n    constructor(string memory _medicine_name,address _patient) {\n        creator = msg.sender;\n        medicineName=_medicine_name;\n        patient=_patient;\n        isUsed=false;\n        // here we wont initialize address of pharmacist,\n        // as it can be only done when patient will be going to use its prescription\n    }\n\n\n    // update after meeting - calling this function need to be done by pharmacist\n    //so please go ahead and modify this function\n    function reedem(address _pharmacist) public{\n        // here we should add more validation to avoid calling this method more than one,\n        // sth like require(isUsed=false) plus only the pharmacist should call it so require(msg.sender=pharmacist)\n        // should be added\n\n        pharmacist = _pharmacist;\n        isUsed = true;\n    }\n}\n",
  "sourcePath": "/Users/Drakles/Documents/nauka/KCL/KCL subjects/Sem2/DL&CC/GroupProject/SmartPrescription/contracts/Prescription.sol",
  "compiler": {
    "name": "solc",
    "version": "0.7.0+commit.9e61f92b.Emscripten.clang"
  },
  "schemaVersion": "3.3.4",
  "updatedAt": "2021-03-10T15:23:36.979Z",
  "networkType": "ethereum",
  "devdoc": {
    "kind": "dev",
    "methods": {},
    "version": 1
  },
  "userdoc": {
    "kind": "user",
    "methods": {},
    "version": 1
  }
}